:100000000C942A000C9434000C9450000C9434008E
:100010000C9434000C9434000C9434000C94340090
:100020000C9434000C9434000C9434000C94340080
:100030000C9434000C9434000C9434000C94340070
:100040000C9434000C9434000C9434000C94340060
:100050000C94340011241FBECFE5D8E0DEBFCDBF25
:100060000E9487000C9495000C9400001BB888E156
:100070008AB986E880BD83E389B910BC08955D9B89
:10008000FECF8CB908955F9BFECF8CB1089580EAB6
:1000900087BB81E58DB908958FB9779BFECF089511
:1000A0001F920F920FB60F9211242F933F934F93ED
:1000B0005F936F937F938F939F93AF93BF93EF93D0
:1000C000FF9381E390E00E944C001BB88FEF8BBB45
:1000D000E7EAF1E63197F1F700C000001BBAE7EA62
:1000E000F1E63197F1F700C000008ABFFF91EF9170
:1000F000BF91AF919F918F917F916F915F914F9140
:100100003F912F910F900FBE0F901F9018958FEF7A
:1001100087BB8ABB1BBA11BA12BA0E9447008CE097
:0E01200085BF80E88BBF7894FFCFF894FFCFA7
:00000001FF
