:100000000C942A000C9434000C9434000C943400AA
:100010000C9434000C9434000C9434000C94340090
:100020000C9434000C9434000C9434000C94340080
:100030000C9434000C9434000C9434000C94340070
:100040000C9434000C9434000C9434000C94340060
:100050000C94340011241FBECFE5D8E0DEBFCDBF25
:100060000E9445000C9464000C940000E199FECFBE
:100070009FBB8EBB6DBBE29AE19A0895E199FECFDA
:100080009FBB8EBBE09A8DB308958FEF87BB18BAE4
:10009000C0E0D0E06C2F6F59CE010E9436008FE493
:1000A00093EC0197F1F700C000002196CA31D10509
:1000B00089F7CFEF80E090E00E943E00813611F496
:0C00C000C8BBF8CF18BAF6CFF894FFCFF9
:00000001FF
