:100000000C94A7000C94C4000C94C4000C94C4007D
:100010000C94C4000C94C4000C94C4000C94C40050
:100020000C94C4000C941E010C94C4000C94C400E5
:100030000C94C4000C94C4000C94C4000C94C40030
:100040000C94C4000C94C4000C94C4000C94C40020
:100050000C94C40000407A10F35A00A0724E1809A4
:100060000010A5D4E80000E87648170000E40B541F
:10007000020000CA9A3B000000E1F50500008096EE
:100080009800000040420F000000A0860100000020
:10009000102700000000E8030000000064000000DA
:1000A00000000A00000000000100000000002C76A3
:1000B000D888DC674F0823DFC1DFAE59E1B1B796BE
:1000C000E5E3E453C63AE651997696E8E6C284261B
:1000D000EB898C9B62ED407C6FFCEFBC9C9F40F2F7
:1000E000BAA56FA5F490055A2AF75C936B6CF96773
:1000F0006DC11BFCE0E40D47FEF520E6B500D0ED38
:10010000902E0300943577050080841E080000209F
:100110004E0A000000C80C333333330F986E12833D
:100120001141EF8D2114893BE65516CFFEE6DB1811
:10013000D1844B381BF77C1D901DA4BBE4242032D6
:1001400084725E228100C9F124ECA1E53D271124CF
:100150001FBECFE5D8E0DEBFCDBF10E0A0E6B0E027
:10016000E2E4FBE002C005900D92AA37B107D9F78F
:1001700020E0AAE7B0E001C01D92AC37B207E1F77A
:100180000E9435010C949F050C94000088BB85B338
:100190008C7F85BBAA9A0000AA988DE78A95F1F713
:1001A000089588BBA99885B3856085BB0000AA988F
:1001B00089E28A95F1F700C0089584B3876084BB13
:1001C0008FEF87BB80E792E00197F1F700C0000056
:1001D00088E30E94C6008CE00E94C60086E00E9470
:1001E000C60081E00E94C60080E80C94C600CF9350
:1001F000DF93EC018991882319F00E94D100FACF96
:10020000DF91CF910895CF93DF93EA01813021F4FC
:10021000862F8F70806805C0823029F4862F8F70FA
:10022000806C0E94C600CE01DF91CF910C94F70044
:1002300081E00E94C60080E80C94C6001F920F92D5
:100240000FB60F9211248F939F9380917A00909113
:100250007B00019690937B0080937A009F918F9111
:100260000F900FBE0F901F901895CF93DF93CDB7CF
:10027000DEB72A970FB6F894DEBF0FBECDBF81E080
:100280008ABB8FEF82BB0E94DD0080E80E94C6001F
:1002900080E690E00E94F700789484E089BF1FBC5C
:1002A00081E4D82E90E2F92E24E0E22ECC24C394EF
:1002B000D89A00C0D8981DBC1CBCDEBCF8BEE8BEF5
:1002C00008B605FEFDCF1DBC1CBCCEBCF8BEE8BE0A
:1002D00010927B0010927A0008B605FEFDCF66B53D
:1002E00077B580E090E00E94150229E23CE349EEF8
:1002F00053E40E94A10120E030E040E051E40E947C
:10030000A1028E010F5F1F4F22E042E00E940E0308
:100310006BE670E0C8010E942E0380EC0E94C600CC
:1003200082E790E00E94F70087EC0E94C600C801B7
:100330000E94F70089E698E10197F1F700C00000FC
:10034000B7CF0E94B5010C9467020E94600258F07A
:100350000E94590240F029F45F3F29F00C945002AA
:1003600051110C949B020C9456020E94780268F37F
:100370009923B1F3552391F3951B550BBB27AA275E
:1003800062177307840738F09F5F5F4F220F331F98
:10039000441FAA1FA9F335D00E2E3AF0E0E832D060
:1003A00091505040E695001CCAF72BD0FE2F29D063
:1003B000660F771F881FBB1F261737074807AB0735
:1003C000B0E809F0BB0B802DBF01FF2793585F4FAA
:1003D0003AF09E3F510578F00C9450020C949B0229
:1003E0005F3FE4F3983ED4F3869577956795B7958C
:1003F000F7959F5FC9F7880F911D9695879597F997
:100400000895E1E0660F771F881FBB1F621773070F
:100410008407BA0720F0621B730B840BBA0BEE1F24
:1004200088F7E0950895E89409C097FB3EF490950D
:100430008095709561957F4F8F4F9F4F9923A9F0BD
:10044000F92F96E9BB279395F6958795779567954C
:10045000B795F111F8CFFAF4BB0F11F460FF1BC090
:100460006F5F7F4F8F4F9F4F16C0882311F096E923
:1004700011C0772321F09EE8872F762F05C06623D1
:1004800071F096E8862F70E060E02AF09A95660F8A
:10049000771F881FDAF7880F9695879597F9089543
:1004A00097F99F6780E870E060E008959FEF80EC27
:1004B000089500240A9416161706180609060895CA
:1004C00000240A9412161306140605060895092E30
:1004D0000394000C11F4882352F0BB0F40F4BF2B9F
:1004E00011F460FF04C06F5F7F4F8F4F9F4F0895DF
:1004F00057FD9058440F551F59F05F3F71F04795D5
:10050000880F97FB991F61F09F3F79F087950895B9
:10051000121613061406551FF2CF4695F1DF08C0D8
:10052000161617061806991FF1CF869571056105F5
:1005300008940895E894BB2766277727CB0197F99D
:1005400008950E94B4020C9467020E94590238F088
:100550000E94600220F0952311F00C9450020C943C
:10056000560211240C949B020E94780270F3959F0E
:10057000C1F3950F50E0551F629FF001729FBB279A
:10058000F00DB11D639FAA27F00DB11DAA1F649F36
:100590006627B00DA11D661F829F2227B00DA11DE9
:1005A000621F739FB00DA11D621F839FA00D611D6F
:1005B000221F749F3327A00D611D231F849F600D90
:1005C000211D822F762F6A2F11249F5750409AF0B9
:1005D000F1F088234AF0EE0FFF1FBB1F661F771F45
:1005E000881F91505040A9F79E3F510580F00C9410
:1005F00050020C949B025F3FE4F3983ED4F386953F
:1006000077956795B795F795E7959F5FC1F7FE2BAF
:10061000880F911D9695879597F90895EF920F93FE
:100620001F93CF93DF93E80147FD02C034E001C080
:1006300034E1E42F440FFF0BF7FF03C0F195E19580
:10064000F109E32E022F2E2FAE010E943903CE01B5
:10065000DF91CF911F910F91EF900895FB01DC0185
:100660000D900020E9F7119701900D920020E1F71D
:1006700008954F925F926F927F929F92AF92BF9236
:10068000CF92DF92EF92FF920F931F93CF93DF935E
:10069000CDB7DEB729970FB6F894DEBF0FBECDBF3A
:1006A0006A01122FB02E2BE3201720F0FF24F394C1
:1006B000F00E02C0BCE3FB2E0F2D27E0AE014F5F12
:1006C0005F4F0E94C704AC018981982F99709130C7
:1006D00031F0E1FC06C0E0FE06C090E205C09DE2FC
:1006E00003C09BE201C090E0EE2DE07183FF3CC0AF
:1006F000911102C083E001C084E0811718F4212F1A
:10070000281B01C020E0E1110BC0F601822F30E26E
:10071000882319F031938150FBCFC20ED11C20E009
:10072000992329F0D6019C93F60131966F01C601F9
:100730000396E2FE0AC03EE4D6013C9341E41196E2
:100740004C93119712963C9306C03EE6F601308317
:1007500041E641833283FC01322F40E2332309F426
:1007600042C041933150FACF82FF44C0911102C080
:1007700083E001C084E0811718F4212F281B01C0F9
:1007800020E0E1110BC0F601822F30E2882319F03E
:1007900031938150FBCFC20ED11C20E0992329F068
:1007A000D6019C93F60131966F01C6010396E2FED5
:1007B0000BC039E4D6013C933EE411963C9311976B
:1007C00036E412963C9307C039E6F60130833EE6E4
:1007D000318336E63283FC01322F40E2332319F0B5
:1007E00041933150FBCFFC01E20FF11D10828EEFDF
:1007F0009FEFB7C0F1E0911101C0F0E06F2F70E002
:100800001416150624F49A012F5F3F4F02C021E011
:1008100030E0260F371FBB2029F06B2D70E06F5F93
:100820007F4F02C060E070E0260F371F612F70E03D
:10083000261737071CF4121B212F01C020E03E2D84
:10084000387159F4D601322F60E2332319F06D93D9
:100850003150FBCFC20ED11C20E0FF2331F0D60176
:100860009C93B6016F5F7F4F6B01E1110BC0F601E6
:10087000922F30E3992319F031939150FBCFC20EA0
:10088000D11C20E09F2D940F3A81782F7071A72EF4
:1008900084FF03C0313309F49150191624F49930C0
:1008A00018F098E001C091E0E42F852F57FF02C0B7
:1008B000E0E080E06E2F782FE0E0F0E0AEE29A2EEC
:1008C0003A01691A71082A01461A570A0B2D10E0DD
:1008D0001195019511096F3F8FEF780729F4D60123
:1008E0009C92C60101966C014617570784F0661664
:1008F00077066CF47F01E40CF51CA1E0B0E0AC0FCE
:10090000BD1FEA0EFB1ED7011196BC9002C090E3FA
:10091000B92E615071093196C60101967C016017AC
:10092000710724F0D601BC926C01D5CF641775070E
:1009300041F4363320F4353321F4A11002C081E3B1
:10094000B82EF601B082F701822F90E2882319F0C9
:1009500091938150FBCFF701E20FF11D108280E0EF
:1009600090E029960FB6F894DEBF0FBECDBFDF91A1
:10097000CF911F910F91FF90EF90DF90CF90BF909C
:10098000AF909F907F906F905F904F900895283028
:1009900008F027E03327DA01990F311D87FD9160B8
:1009A00000966105710539F432602E5F3D9330E3A6
:1009B0002A95E1F708959F3F30F080387105610571
:1009C00009F03C5F3C5F3D93913008F08068911DD9
:1009D000DF93CF931F930F93FF92EF92192F987F7E
:1009E0009695E92F96959695E90FFF27E255FF4FCB
:1009F00099273327EE24FF24A701E70105900894E7
:100A0000079428F4360FE71EF81E491F511D660F84
:100A1000771F881F991F0694A1F70590079428F463
:100A2000E70EF81E491F561FC11D770F881F991F1B
:100A3000661F0694A1F70590079428F4F80E491F45
:100A4000561FC71FD11D880F991F661F771F069459
:100A5000A1F70590079420F4490F561FC71FD81F10
:100A6000990F661F771F881F0694A9F78491109528
:100A7000177041F0D695C79557954795F794E79429
:100A80001A95C1F7E4E5F0E0689415901591359159
:100A90006591959105907FE27395E118F10A430BFA
:100AA000560BC90BD009C0F7E10CF11E431F561FAE
:100AB000C91FD01D7EF4703311F48A95E6CFE894F7
:100AC000015030F0080F0AF40027021708F4202F15
:100AD0002395022F7A3328F079E37D932A95E9F75D
:100AE00010C07D932A9589F606949795679537955A
:100AF00017951794E118F10A430B560BC90BD0094F
:100B000098F023957E9173957A3308F070E37C9387
:100B10002013B8F77E9170617D9330F0839571E377
:100B20007D9370E32A95E1F71124EF90FF900F91E8
:100B30001F91CF91DF91992787FD90950895F894A3
:020B4000FFCFE5
:100B4200556C747261736F6E69630020636D20204F
:0A0B5200200044697374203D200068
:00000001FF
