:100000000C942A000C9434000C9434000C943400AA
:100010000C9434000C9434000C9434000C94340090
:100020000C9434000C9434000C9434000C94340080
:100030000C9434000C9434000C9434000C94340070
:100040000C9434000C9434000C9434000C94340060
:100050000C94340011241FBECFE5D8E0DEBFCDBF25
:100060000E9436000C944B000C9400008D9A1DBC2D
:100070001CBC83EC99E097BD86BD81E490E09BBDFC
:100080008ABD2FEF8EE994E2215080409040E1F745
:0A00900000C00000FFCFF894FFCF7E
:00000001FF
