:100000000C942A000C943C000C943C000C943C0092
:100010000C943C000C943C000C943C000C943C0070
:100020000C943C000C943C000C943C000C943C0060
:100030000C943C000C943C000C943C000C943C0050
:100040000C943C000C943C000C943C000C943C0040
:100050000C943C0011241FBECFE5D8E0DEBFCDBF1D
:1000600020E0A0E6B0E001C01D92A336B207E1F7A0
:100070000E9481000C9491000C94000086B597B505
:10008000805391419BBD8ABD089586B597B5885729
:1000900095409BBD8ABD0895809162008FBD80917F
:1000A00060008EBD8091610090E097BD86BD08958F
:1000B0008FB5826C8FBD8EB589618EBD8FE19EE458
:1000C00097BD86BD08950E9458000E943E002FE70C
:1000D0008AE196E0215080409040E1F700C00000A6
:1000E0000C944C000E9458000E9445002FE78AE1C2
:1000F00096E0215080409040E1F700C000000C9451
:100100004C00D09A8FEF81BB8FB5809362008EB583
:100110008093600086B597B5809361000E9463006C
:060120000895F894FFCFE2
:00000001FF
